:100000000C9434000C943E000C943E000C943E0082
:100010000C943E000C943E000C943E000C943E0068
:100020000C943E000C943E000C943E000C943E0058
:100030000C943E000C943E000C943E000C943E0048
:100040000C943E000C943E000C943E000C943E0038
:100050000C943E000C943E000C943E000C943E0028
:100060000C943E000C943E0011241FBECFEFD8E04C
:10007000DEBFCDBF0E9440000C94BB000C9400007A
:100080008AB18C6F8AB98BB183708BB987B18F605D
:1000900087B988B1807F88B95A9A2FEF81EE94E0B2
:1000A000215080409040E1F700C000005A985B9AD0
:1000B0002FEF81EE94E0215080409040E1F700C0A6
:1000C00000005B985C9A2FEF81EE94E02150804015
:1000D0009040E1F700C000005C985D9A2FEF81EE40
:1000E00094E0215080409040E1F700C000005D980E
:1000F0005E9A2FEF81EE94E0215080409040E1F72E
:1001000000C000005E985F9A2FEF81EE94E02150CE
:1001100080409040E1F700C000005F98409A2FEFC8
:1001200081EE94E0215080409040E1F700C0000053
:100130004098419A2FEF81EE94E02150804090400A
:10014000E1F700C000004198429A2FEF81EE94E061
:10015000215080409040E1F700C000004298439A4F
:100160002FEF81EE94E0215080409040E1F700C0F5
:0A0170000000439891CFF894FFCFF0
:00000001FF
