:100000000C9434000C943E000C943E000C943E0082
:100010000C943E000C943E000C943E000C943E0068
:100020000C943E000C943E000C943E000C943E0058
:100030000C943E000C943E000C943E000C943E0048
:100040000C943E000C943E000C943E000C943E0038
:100050000C943E000C943E000C943E000C943E0028
:100060000C943E000C943E0011241FBECFEFD8E04C
:10007000DEBFCDBF0E9440000C9479000C940000BC
:100080008AB18C6F8AB98BB183708BB987B18F605D
:1000900087B988B1807F88B95A9A8BB1803879F056
:1000A0002FEF81EE94E0215080409040E1F700C0B6
:1000B00000008BB1880F8BB98BB1803889F78BB179
:1000C00083708BB9409A88B1883079F02FEF81EE38
:1000D00094E0215080409040E1F700C0000088B1DA
:1000E000880F88B988B1883089F788B1807F88B94E
:0600F000D3CFF894FFCF0E
:00000001FF
